:1000000000000420B5020000DD020000DF02000055
:10001000E1020000E3020000E50200000000000031
:10002000000000000000000000000000E7020000E7
:10003000E902000000000000EB020000ED020000F9
:100040009D210000EF020000651B0000AD1B0000B9
:10005000EF020000EF020000EF020000EF020000DC
:10006000EF020000EF020000EF020000EF020000CC
:10007000EF020000EF020000EF020000EF020000BC
:10008000EF02000001220000EF020000EF0200007A
:10009000A1220000EF020000EF020000EF020000CA
:1000A000EF020000EF020000EF020000EF0200008C
:1000B000EF020000EF02000000000000000000005E
:1000C000EF020000EF020000EF020000EF0200006C
:1000D000EF020000EF020000EF020000EF0200005C
:1000E000EF020000EF020000EF020000000000003D
:1000F00000000000EF02000000000000EF0200001E
:1001000000000000000000000000000000000000EF
:1001100000000000000000000000000000000000DF
:1001200000000000000000000000000000000000CF
:1001300000000000000000000000000000000000BF
:1001400000000000000000000000000000000000AF
:10015000000000000000000000000000000000009F
:10016000000000000000000000000000000000008F
:10017000000000000000000000000000000000007F
:10018000000000000000000000000000000000006F
:10019000000000000000000000000000000000005F
:1001A000000000000000000000000000000000004F
:1001B000000000000000000000000000000000003F
:1001C000000000000000000000000000000000002F
:1001D000000000000000000000000000000000001F
:1001E000000000000000000000000000000000000F
:1001F00000000000000000000000000000000000FF
:1002000010B5054C237833B9044B13B10448AFF350
:1002100000800123237010BDE801002000000000D1
:100220005050000008B5034B1BB103490348AFF31E
:10023000008008BD00000000EC01002050500000CC
:10024000154B002B08BF134B9D46A3F5803A0021A8
:100250008B460F461348144A121A02F006FF0F4B42
:10026000002B00D098470E4B002B00D09847002061
:10027000002104000D000D48002802D00C48AFF307
:10028000008002F0A3FE2000290002F041FC02F0F1
:1002900089FE00BF000008000000042000000000EC
:1002A00000000000E8010020240C002000000000F5
:1002B000000000000649074A074B9B1A03DD043B78
:1002C000C858D050FBDC02F08BFDFFF7B9FF0000EF
:1002D000B850000000000020E8010020FEE7FEE723
:1002E000FEE7FEE7FEE7FEE7FEE7FEE7FEE7FEE7E6
:1002F000704700BF00B583B0044B0093044A40230D
:1003000000F036F803B05DF804FB00BF15030000F1
:100310000802002002B32DE9F843114B114E884624
:10032000144643F0010903270025224608EB050186
:10033000002002F071FC03461D444FF47A40E41A99
:1003400023B9337833B1C847013F06D00123337056
:10035000002CEAD1BDE8F88370473770BDE8F88318
:10036000104D000004020020704700BF02F008BDDD
:10037000F0B595B0002415460F4608461E4601F01C
:100380006DFA384623460895082205A91A9D099654
:100390000D950A948DF82C400C9401F0B9FA9DF853
:1003A00014308DF81140DDE9061003F00302012A34
:1003B000CDE9020127D0022A04D0384601F052FAD2
:1003C00015B0F0BDBDF81650C3F3C2038DF8103060
:1003D000AD090826082D2C4628BF0824334622469E
:1003E0000EA9384601F094FA2D1B214608AB02AA4B
:1003F0000EA8264400F022FC002DEBD1384601F077
:1004000031FA15B0F0BDBDF81460059DC6F3831632
:10041000C3F3C204B2000EA9384608238DF8104079
:10042000C5F3952501F074FA08AB324628460EA9AB
:10043000009302AB00F05CFB384601F013FA15B0F4
:10044000F0BD00BF08B5FFF791FF0421034800F09D
:1004500005FB034B01225A7108BD00BF8C50000000
:1004600000000020F0B5324C85B004F5836000F048
:1004700013FD04F2144000F00FFDD4E9013703EA44
:100480000702D01C04EB800114F8200010F00400D7
:1004900044D003F1020C0E7806F00306012E6546E7
:1004A00035D0022E02F1030621D004EB860100288C
:1004B000F1D104EB82020133D26801923B4004EB9C
:1004C000830302F00302012ADE6829D0022A23D125
:1004D000BDF806309B090333360C05EB9305154830
:1004E00000F0E6FC00B16560304605B0F0BD4B8819
:1004F0000CEB931307EA0302D11C03F1020C14F86E
:100500002100654604EB810100F00400CFE70B8871
:10051000C3F383136344EDE70026E0E79D1CC8E7BF
:10052000BDF80430C3F38313360C1D44D7E700BF76
:10053000180300202C0700200B4B0C4810B500229C
:10054000FF21C3F818249960C3E90022C3F81424DA
:1005500083F8202401F03EF9044610B9044801F064
:100560000BFA204610BD00BF180300209C5000006D
:10057000344D000021B9124B03EBC00000687047F6
:10058000104A0F49521AD20815D030B40E4D2B889C
:10059000834212D0002303E035F82340844205D083
:1005A00001339A42F8D1002030BC704701EBC30000
:1005B000006830BC7047104670470846F8E700BF37
:1005C000545000008C500000E8010020094B013914
:1005D00003EBC00003290BD8DFE801F00208060492
:1005E00002207047407970470079704704207047B7
:1005F00000207047545000002DE9F843DFF8D890F0
:10060000074600208846D9F8084000F011FCD9E9D7
:100610000132D9F80060134401339B1B012B56D8DB
:1006200009F21C450121284600F01EFCFFF71AFFC5
:100630000146284600F018FCD9E90132D9F800102B
:10064000134401335B1A012BECD90A400332052312
:100650000231002049F82230C9F8001000F0F0FB08
:1006600000211C4800F0F6FB80F31000731C2340AF
:1006700009EB830300043440033440EA1740D86098
:1006800019F8243067F3C50309F8243039F8243009
:100690006FF3891329F8243059F8242068F39F2236
:1006A0001346012161F301036FF3820349F824200B
:1006B00009F8243099F820341BB906E000F00EF850
:1006C00018B1D9E900329A42F8D1BDE8F883314631
:1006D000BBE700BF34070020180300202DE9F047D6
:1006E000914C002384B0C4F81834BFF34F8FD4E981
:1006F000015605EA0602D31C04EB830114F82330EB
:10070000580719D527680B7803F00303012B43D052
:10071000022B03D14B88023505EB931506EA05023F
:10072000D4F81804D31C04EB830128B9AF4239D99B
:1007300014F823305B07E6D404EB82026B1CD2680A
:100740000192334004EB830302F00302DB6802935F
:10075000022A05F1020700F08980012A26D0D4F888
:1007600010543DB12B6828469B689847EB681D687C
:10077000002DF7D16D486E4B6E49C01AC0080004B9
:1007800040F00200FFF738FFD4E90030C01A18BF6C
:10079000012004B0BDE8F0870B880235C3F3831352
:1007A0001D44BBE7676004B0BDE8F087BDF80420D6
:1007B0006148C2F38313062B28BF062363F3891213
:1007C00002339900ADF8042001F006F880460028B5
:1007D000C5D001F043F80023082201A9404601F0EA
:1007E00063F8BDF8043013F4707F00F09B806FF065
:1007F000010AAAEB050A082506EA070103312B4680
:10080000042204EB8101404601F04EF8BDF80430AB
:1008100007F101090AEB0902C3F3831393424F4620
:1008200005F10405E8D8D4F81834002B64D1D4F8C5
:10083000105465B1EB685A7928464146002A57D0D2
:100840002B681B689847EB681D68002DF2D1404665
:1008500001F008F8002000F0EBFAD4F818340BB9D6
:10086000C4F80490002000F0EBFA8DE7BDF80630E4
:1008700031484FEA93194D46502D28BF502565F356
:100880008F1305F10801ADF8063000F0A5FF804692
:1008900000283FF464AF26EA070A0AF1010A00F0D3
:1008A000DDFF4FEA8A0A0023082201A9404600F032
:1008B000FBFF55452BD9EBB2BAF1000F20D006EA69
:1008C0000701A3EB0A03033104EB8101DDB25246B9
:1008D0000823404600F0E8FF2A460AF108031749BA
:1008E000404600F0E1FF09F1030907EB99099AE797
:1008F0001D68002D9ED1AAE7404600F0B3FF43E7F4
:100900002A4608230D49404600F0CEFFEBE706EAF1
:100910000701033104EB81012A460823404600F019
:10092000C3FFE0E7B9467EE7180300207C500000D3
:1009300054500000404D00009C5000002403002053
:100940002DE9F84F3D4C8046002093469A46A56815
:10095000894600F06DFAD4E9013227681344013367
:10096000DB1B042B67D804F21C460121304600F043
:100970007BFAFFF777FD0146304600F075FAD4E9BF
:1009800001322168134401335B1A042BEDD90A406C
:1009900003320531C523002044F82230216000F0E5
:1009A0004FFAB81CFA1C28402A403B1D2B4004EB90
:1009B000800004EB820204EB8303C0F80CB000213A
:1009C000C2F80CA01E480A9ADA6000F043FA80F3DD
:1009D00010007B1C2B4004EB830300043D400335D7
:1009E00040EA1840D86014F8253068F3C50304F8CD
:1009F000253034F82530032262F3891324F825309A
:100A000054F8252069F39F221346012161F3010365
:100A10006FF3820344F8252004F8253094F820343D
:100A20001BB906E0FFF75AFE18B1D4E900329A422A
:100A3000F8D1BDE8F88F3946A9E700BF18030020B8
:100A400034070020044BD3E900239A4201D0FFF77A
:100A500045BE0020704700BF1803002030B4184D79
:100A6000D5F8104400215CB1E3681A798A4204D1B8
:100A700016E0DB681A798A4212D01B68002BF8D185
:100A8000C3681971D5F8103493B1DA68C368126875
:100A90001A60D5F81034DB68186030BC084670471F
:100AA00001310A29DFD14FF0FF31084630BC7047D1
:100AB000C5F81004C2681360084630BC704700BF18
:100AC0001803002038B5094BD3F81044012583F8EA
:100AD00020544CB1E3685D71236820465B689847F9
:100AE000E3681C68002CF5D138BD00BF1803002056
:100AF0002DE9F04784B01D460C9C002394F80C802F
:100B00002373EB8881460E461746002B40D1297A85
:100B100005290ED06B7AA88873BB404B53F821A0EF
:100B20000021FFF727FD524603463D49204600F0CD
:100B30002BFA062F09D8DFE807F0046A4249525D14
:100B400033004946204600F01FFA2B7A052B05D0CA
:100B50006B7A5BB93349204600F016FA204600F064
:100B600007FA84F80C8004B0BDE8F0872E4A2F49BC
:100B7000204600F009FAEDE7FFF728FD2C4B2B4942
:100B800053F82020204600F0FFF9297AA888C4E70E
:100B9000254A00922749284A204600F0F5F9B6E791
:100BA000D6E90410D6E900230390D6E902070291A2
:100BB000CDE900074946204600F0E6F9C5E7494679
:100BC000D6E90023204600F0DFF9BEE7B168D6E998
:100BD000002320460091494600F0D6F9B5E7D6E952
:100BE0000201D6E90023019100904946204600F019
:100BF000CBF9AAE7D6E90371B068D6E900230291E0
:100C0000CDE900074946204600F0BEF99DE732686D
:100C10004946204600F0B8F997E700BFC84D0000EC
:100C2000BC4D0000084F0000B04D0000B84D000062
:100C3000584D0000984D0000904D0000082900D943
:100C400070472DE9F04F1D46904600232A7B2B73F9
:100C500085B0B8F80630039207460E46002B7CD1CB
:100C600098F80810052911D098F80930B8F8040050
:100C7000002B64D13D4B53F821400021FFF77AFC53
:100C8000224603463A49284600F07EF9DFF800B1D3
:100C9000DFF80091002405E03A5D013400F074F9BA
:100CA000082C09D0A64249462846F5D859460134B1
:100CB00000F06AF9082CF5D12E49DFF8DCB0DFF836
:100CC000DC90284600F060F900240CE017F804A03E
:100CD000BAF17E0F24D92E2249462846013400F06D
:100CE00053F9082C08D0A642F0D8594628460134BA
:100CF00000F04AF9082CF6D198F80830052B02D0FC
:100D000098F80930ABB91C49284600F03DF928464F
:100D100000F02EF99DF80C302B7305B0BDE8F08F74
:100D200002F078F950445246437813F0970FD2D02E
:100D3000D2E7124A1249284600F026F9E3E7FFF706
:100D400045FC104B0E4953F82020284600F01CF9B2
:100D500098F80810B8F804008CE7084A00920A498D
:100D60000A4A284600F010F97AE700BFC84D000093
:100D7000BC4D0000884D0000084F0000B04D000041
:100D8000B84D0000584D0000984D0000904D0000F7
:100D9000844D00007C4D0000C44D00008C4D0000CF
:100DA00000B585B000230390194601AA44F2010062
:100DB000CDE9013300F004F805B05DF804FB00BF95
:100DC00010B572B6FFF77EFEFFF73CFE0028FBD1A0
:100DD000104B114C1149E41AE408240444F00100BA
:100DE000FFF70AFC0E4B1B68DB0700D500BE44F082
:100DF00002000C49FFF700FCBFF34F8F0A490B4B71
:100E0000CA6802F4E0621343CB60BFF34F8F00BFA8
:100E1000FDE700BF545000007C500000344E00003D
:100E2000F0ED00E0404E000000ED00E00400FA05A7
:100E300072B6024A1368013313607047D40700206A
:100E4000034A1368013B136003B962B6704700BFE1
:100E5000D407002050E8002F0B4640E8003C9CF0EF
:100E6000000FF7D11046704750E8003F03EB010236
:100E700040E8002C9CF0000FF6D11046704700BFF0
:100E800050E8003FA3EB010240E8002C9CF0000F6B
:100E9000F6D11046704700BF012350E8002F42EA08
:100EA000030C40E800C191F0000FF6D16046704796
:100EB000002350E800CF0CEA030240E8002191F043
:100EC000000FF6D160467047B8B130B4D0E90112D6
:100ED000521A0468D2B2531E2160DBB242B10168DB
:100EE0000A685C1E551C0D601370E3B2FF2BF6D12F
:100EF00003680020187130BC70470E20704700BF97
:100F000038B504460020FFF793FFD4E900311A6892
:100F10008A4215D9511E19602168A3680868258A7C
:100F200012F8012CE4681B1A0879DBB2984205FB21
:100F3000024400D20B710020FFF782FF204638BD2B
:100F40000024F8E738B5054600200C46FFF770FF8F
:100F50002A681368591C1160E9682A8A641AB4FB6C
:100F6000F2F41C700020BDE83840FFF769BF00BFF5
:100F7000826842B110B50446436901680069984728
:100F80000023A36010BD70470EB400B582B0039972
:100F900029B102AA04AB42F8043D00F0A9F802B05E
:100FA0005DF804EB03B070472DE9F04F924683B033
:100FB00051450F4605461E46DDE90CB2C0F0928051
:100FC0000B464FF00108B3FBFAF39A4508F101080C
:100FD000F9D9B04538BFB04612F00109A96802D16D
:100FE000BBF1000F54D1012402E0013E0AFB04F4DE
:100FF000012EFAD8B7FBF4F08245F7D93B4E02E058
:10100000A968B7FBF4F0335C2A680A2B04FB10775D
:1010100002EB010E01F1010029D0A8608EF800302A
:10102000D5E90131994202D32846FFF7A1FFB4FB6D
:10103000FAF4002CE4D1B9F1000F15D0BBF1000F88
:1010400012D0C34510D92024AB682A68591CA96066
:10105000D454D5E901329A420BF1FF3B14D2BBF1D3
:10106000000F01D0C345EFD103B0BDE8F08FA860F9
:101070004FF00D005054D5E9011088421DD2296867
:1010800001EB000E0130C8E72846FFF771FFE6E7E5
:10109000930722D42024C345A5D92B684A1CAA60F3
:1010A0005C54D5E9013199420BF1FF3B10D2BBF101
:1010B000000F98D0C345F0D195E728460193FFF77C
:1010C00057FFAA682968019B501C01EB020EA4E798
:1010D0002846FFF74DFFA968E9E7002E0CBF302432
:1010E0002024D8E74FF0010873E700BF504E0000FE
:1010F000002900F0B9822DE9F04F054687B09146EE
:101100000C460E78DFF8C8A64FF00D0B13E0AB6865
:1011100028680A2E03F1010200EB030100F04B8264
:10112000AA600E70D5E901329A4280F01B812678C0
:10113000002E00F01E810134002E00F01A81252EB1
:10114000E5D12346002713F8012B2D2A00F0E38078
:10115000302A00F0E4802B2A00F0D4802A2A00F004
:101160000D81A2F13006F1B2092903D97DE2A1F186
:1011700030060346184606EB860110F8012BA2F153
:101180003004092C02EB4101F1D92E2A00F0028132
:101190004FF00008013301E013F8012B02F0FB01CE
:1011A00068291C46F8D0253A532AC0D801A353F821
:1011B00022F000BF9F1500002F1100002F1100002A
:1011C0002F1100002F1100002F1100002F1100001F
:1011D0002F1100002F1100002F1100002F1100000F
:1011E0002F1100002F1100002F1100002F110000FF
:1011F0002F1100002F1100002F1100002F110000EF
:101200002F1100002F1100002F1100002F110000DE
:101210002F1100002F1100002F1100002F110000CE
:101220002F1100002F1100002F1100002F110000BE
:101230002F1100002F1100002F1100002F110000AE
:101240002F1100002F1100002F1100002F1100009E
:101250002F1100002F1100002F1100002F1100008E
:101260002F1100002F1100002F1100002F1100007E
:101270002F1100002F1100002F1100002F1100006E
:10128000831500002F1100002F1100002F11000006
:101290002F1100002F1100002F1100002F1100004E
:1012A0002F1100002F1100002F1100002713000044
:1012B000091500002F1100002F1100002F11000050
:1012C0002F110000091500002F1100002F11000040
:1012D0002F1100002F1100002F1100002F1100000E
:1012E000711400002F1100002F110000E9130000FD
:1012F0002F110000CD1300002F1100002F1100004E
:101300008315000047F004071C46234613F8012B01
:101310002D2A7FF41DAF47F001071C46F5E747F083
:1013200002071C46F1E7D9F800301A1DC9F8002061
:101330001E78AB680A2E0CD12A68591CA96002F8E5
:1013400003B0D5E90123934203D32846FFF710FEEB
:10135000AB682A68591CA960D654D5E901329A4273
:10136000FFF4E5AE2846FFF703FE2678002E7FF453
:10137000E2AE2B7B23BB07B0BDE8F08FD9F800208D
:10138000111DC9F80010166862782E2A04F10200B7
:101390007FF4FEAE5A78A2F13003092B00F2BD8132
:1013A0004FF0000808EB880802EB480810F8012FFE
:1013B000A2F13003092BA8F13008F3D90346E9E67E
:1013C000284607B0BDE8F04FFFF7D2BDD9F800308E
:1013D0001A1DC9F8002019680197434600960A2291
:1013E0002846FFF7E1FDA2E6D9F800301A1DC9F83A
:1013F0000020D3F80080FB0700F1E880B8F1000F6F
:1014000000F0A181404601F040FE0746BE4215D9DA
:10141000A6B1202100E08EB1AA682B68501CA860FC
:101420009954D5E901329A4206F1FF3604D3284691
:101430000391FFF79DFD0399BE42ECD108F1FF38FF
:1014400018F8016F002E3FF472AEAB6828680A2EC0
:1014500003F1010200EB030100F09081AA600E701D
:10146000D5E901329A42EBD32846FFF781FDE7E741
:10147000D9F80020131DC9F80030AB682968176837
:10148000581C3022A860CA54D5E90123934280F049
:10149000E6802A68581C7821A860D154D5E9012338
:1014A000934280F0D7800F2F03D93A4612090F2AB2
:1014B000FCD84FF080560DE0AA6081F80080D5E995
:1014C00001329A4202D32846FFF752FD36093FF413
:1014D0002EAEAB68B7FBF6F21AF802802868B8F1B6
:1014E0000A0F06FB127700EB030103F10102E3D1BF
:1014F000AA6000F803B0D5E901329A4280F0498130
:101500002B6899180132D7E7D9F800301A1DC9F8AD
:101510000020196881EAE173A3EBE173092B40F322
:101520000E81AA480122A0FB03C3DB08092B02F1AC
:101530000102F8DC4245134638BF4346039307F0E7
:101540000203002E40F09580002B00F0B780B8F128
:10155000000F00F0F680F80740F1B0800029C0F2DB
:10156000FF807A0700F1C88007F00303022B00F028
:10157000A780CDE9006743460A222846FFF714FDFD
:10158000D5E5D9F800301A1DC9F80020196801976F
:101590004346009610222846FFF706FDC7E5AB68D4
:1015A0002A68581C2521A860D154D5E901329A42F5
:1015B000FFF4BDADD6E6AA6000F803B0D5E901326C
:1015C0009A423FD2296811440132A9E54146A1EB74
:1015D000080311F8017BD7B1AB68D5F800C00A2F1A
:1015E00003F101020CEB030000F0AF80AA6007706A
:1015F000D5E901329A42EAD328460391FFF7B8FCB5
:101600000399A1EB080311F8017B002FE4D19E425E
:101610007FF68DAD202702E0002E3FF488ADA9684B
:101620002A68481CA8605754D5E90121914206F167
:10163000FF3604D328460393FFF79AFC039BB3427B
:10164000EAD174E52846FFF793FCAB6829685A1C79
:10165000194465E52846FFF78BFCAB6823E728466D
:10166000FFF786FCAB6814E7704718460026234650
:101670008BE5002920DB7A071ED41BB1B8F1000FDF
:101680003FF46CAFF8073FF569AFBEB1039BB342BF
:10169000BFF464AF2023AA68501CA8602868835454
:1016A000D5E90102824206F1FF3640D236B1039AF3
:1016B000B242F0D1164651E7013EDEE700264DE783
:1016C000B8F1000F7FF455AF002E6AD0039BB342F0
:1016D000BFF44FAF3023AA68501CA8602868835419
:1016E000D5E90102824206F1FF3618D2002E58D009
:1016F000039AB242EFD13CE7AA68531CAB602B6857
:101700002B209854D5E901329A42FFF42DAF284698
:101710000491FFF72DFC049926E7034638E5284697
:10172000CDE90413FFF724FCDDE90413DEE72846C6
:10173000CDE90413FFF71CFCDDE90413B6E7012231
:10174000F8E646460AE7474660E6AA600CF803B0AA
:10175000D5E901329A4226D22B689818013245E722
:10176000AA68531CAB602B682D209854D5E9013230
:101770009A42C1F10001FFF4F7AEC8E7AA6000F891
:1017800003B0D5E901329A4217D2296811440132D7
:1017900064E62846FFF7ECFBA9682B684A1C19444D
:1017A0008AE60026E5E628460391FFF7E1FBA868F4
:1017B0002B680399421C184418E72846FFF7D8FB0A
:1017C000AB6829685A1C194448E600BFCDCCCCCC84
:1017D000504E0000FFF778BB2DE9F041058ACE1C82
:1017E000043D2E440746B6FBF5F6FFF789FB78B3B8
:1017F000F6B24FF48073013E0446C58007608380D3
:1018000027D08046002509E06379AE4203F1010349
:101810006371C8F80000076080461AD03846FFF7A9
:101820006FFB01350028EFD16679721E14D0234674
:10183000013082421B68FBD11F684EB1002523682E
:101840002146013538461C46FFF77CFBAE42F6D1F7
:1018500000242046BDE8F0812768EFE7043001212D
:10186000FFF702BBF8B5012104460430FFF708FB7F
:10187000C0B200B1F8BD6679721E12D023460130A5
:1018800082421B68FBD11F68002EF3D0002523681D
:101890002146013538461C46FFF754FBAE42F6D1CF
:1018A000F8BD2768F2E700BF2DE9F843C7884679FD
:1018B00007FB06F6043E02EB030C0446664503F103
:1018C000040015468846B0FBF7F238BFF51A07FB4F
:1018D000120012B1013A2468FCD13E1AAE4228BF70
:1018E0002E469DB14FF000090430AD1B2044324616
:1018F00008EB090101F0AEFBAF42B14424683E465B
:101900004FF0000028BF2E46002DEDD1BDE8F88332
:101910002DE9F843C7884679154607FB06F6043ECD
:1019200005EB030C1A1D664504468846B2FBF7F02A
:1019300038BFF51A07FB102110B101382468FCD11B
:101940007E1AAE4228BF2E469DB14FF000090431E9
:101950002144AD1B324608EB090001F07BFBAF428E
:10196000B14424683E464FF0000128BF2E46002DAA
:10197000EDD1BDE8F88300BF8268002393608268E0
:101980001361826853618268D360826853608268A1
:101990001360704730B585B0057804798DF8005034
:1019A0008DF80440457984688DF805508DF806401F
:1019B000C568084A084B8DF80750D0E9044053F831
:1019C000213052F82110CDE902406846984705B011
:1019D00030BD00BFD8070020E00700202DE9F04F00
:1019E000804607785A4C5B4D487B45F8273083B0DA
:1019F0008B46914644F8272068B9574AB9F1000F41
:101A00003B46594608F1040008BF002203B0BDE878
:101A1000F04F00F087B90A68504EDFF844A14FF04C
:101A2000A04302F5E07240F20C6043F822004A68DD
:101A300002F5E072012443F8220008681F2884BFE1
:101A400000F01F0003F5407301228240C3F808250F
:101A50004B681F2B8ABF424A4FF0A04203F01F037E
:101A600004FA03F3C2F808350B684FF0A04503F5FC
:101A7000E07340F20D6245F823204B6803F5E073F4
:101A8000264345F823204FF48070B0470195002588
:101A9000DBF804001F288ABF53464FF0A04300F034
:101AA0001F0CD3F8103598BF844623FA0CF3DB07DC
:101AB0004FF0A04248D4DBF800301F2B84BF5246C1
:101AC00003F01F0304FA03F3C2F80C354FF48070DF
:101AD000B047DBF8003003F01F021F2B04FA02F2BC
:101AE00004FA03F14FF4807024D9CAF808250135AF
:101AF000B047092DCCD1DBF804001F288ABF184A53
:101B00004FF0A04200F01F00012303FA00F0C2F8DA
:101B10000C054FF48070B047DBF804201F2A86BF05
:101B200002F01F020E484FF0A04001239340C0F87E
:101B3000083562E7019B4FF48070C3F80815013542
:101B4000B047092DA4D1D6E7002DD6D155E700BF67
:101B5000E0070020D807002095190000604E000023
:101B600000030050014B1B68184700BFE807002026
:101B700038B50C4B984201D0002038BD00200D46EE
:101B8000FFF756F9084B1C7924B10020FFF758F9EC
:101B9000112038BD012220461D601A71FFF750F94F
:101BA000204638BD00200040E8070020F0B55A4B21
:101BB000D3F824218DB0BAB10022C3F82421D3F880
:101BC00024210592059AD3F804216AB9534A0221C7
:101BD0009068C3F8080391609268C3F80423012257
:101BE0001A625A610DB0F0BD4B4C4C4DD4F8043123
:101BF000002B2ED00023C4F8043105F10C070FCFC1
:101C000007AED4F804C13F68CDF810C00FC695F8F0
:101C10002E30049A376095F83020002B33D02B7B80
:101C2000012B71D0D4F84C150891022B6FD1D4F848
:101C30003C15394B09910021C3F86011D3F86001BC
:101C400002900298C3F85C11D3F85C310393039BB4
:101C500026E0C4F84831D4F848212B7B0192019A40
:101C6000002B38D105F10C070FCF07AE0FC695F842
:101C700030203B683360DAB9294BC4F80022AA60EF
:101C8000C4F8083314E0C4F86031D4F8601102914C
:101C90000299C4F85C31D4F85C310393039B3AB9E0
:101CA0001D4B1F480021C3F80012A960C3F80803A8
:101CB0001949D1F8C434C1F8C43499071DD501239A
:101CC0008DF818300AB985F82F20D5E9003106A81B
:101CD00098470DB0F0BD4FF4007140F20222104B56
:101CE000C4F80012AA60C4F80833AB68C4F804331F
:101CF0000123A36023620DB0F0BD13F0040318BFED
:101D000002238DF81830DDE7D4F83C350893024BF8
:101D1000D3F84C158DE700BF00300040F0070020DD
:101D200002029C012DE9F84F0779DFF80481342580
:101D300005FB07F508EB050696F82D40002C63D14E
:101D40000C4682463649006899469346FFF710FFD5
:101D500000285CD148F805B0B060C6F8049086F859
:101D60002F0086F83000637B86F8323023681F2B03
:101D700086BF03F01F032B4A4FF0A04203F5E07328
:101D800040F20C6142F8231063681F2B86BF03F0FA
:101D90001F03244A4FF0A04203F5E07340F20C61A8
:101DA00042F82310D4E90021DAF80030C3F80825FE
:101DB000C3F80C15A268C3F82425BBF1000F1BD093
:101DC000DAF80010237B090B4AB25B01002ADBB270
:101DD00020DB02F1604202F5614282F80033DAF85A
:101DE0000030114C1B0B5AB2520903F01F030121A2
:101DF00001FA03F344F82230342303FB0783012262
:101E000083F82D20BDE8F88F0820BDE8F88F112059
:101E1000BDE8F88F054A01F00F010A441376DEE7AA
:101E2000AD1B00000003005000E100E0FCEC00E00E
:101E3000F0070020037906490268342000FB0313F1
:101E40000220062183F82D00C2F80015704700BF5C
:101E5000F00700202DE9F04F8DB017469DF858404F
:101E6000002C02F060444FF000020CBF93464FF08C
:101E7000200BB4F1005FCDE90722CDE909220B92D6
:101E80005CD190F804A0DFF84CE105683426984650
:101E900006FB0AE64D4BC5F8083396F82F3003F0E1
:101EA000FF0C002B4ED18DF81D10CDF820800A9725
:101EB00007AC89460FCC01944FF0010486F82F40FF
:101EC000C5F88895C5F804C1D5F80491CDF81090EF
:101ED00006F10C09A9E80F00049BC5F824C1D5F848
:101EE00024310593019B059A1B68C5F850C586F8F7
:101EF00030C0C5F840C5C9F80030C5F84475C5F80C
:101F00004885BBF1000F24D14FF4007240F2022348
:101F1000C5F800224FF48271B3603423012203FB21
:101F20000AF32A62AA605EF80300734400B39B6858
:101F3000C5F8043300200DB0BDE8F08F10200DB0BF
:101F4000BDE8F08FB368C5F8043311200DB0BDE8CB
:101F5000F08F1F4B4FF48072C5F80022B360C5F8B4
:101F600048C1D5F848310393039B4FF4A471D4E7DB
:101F70001046294402E0D5F82421D2B90B68002B81
:101F8000F9D0342303FB0AEED5F8C434C5F8C434C1
:101F900000228EF82F20BBB113F0020F48F201206F
:101FA00048F2022208BF032013F0040F18BF1046A6
:101FB000C5E7C5F82431D5F824310693069B28627D
:101FC0004FF482716861D4E71846B8E702029C01B9
:101FD00000020400F00700202DE9F04F02F06044F9
:101FE0008BB09646B4F1005F4FF00002CDF81A2096
:101FF000CDF81620CDF81E20CDF82220ADF82620F1
:1020000057D10279DFF820B1046801924FF034080B
:1020100008FB02F89A460BEB080C424BC4F8083355
:102020009CF82F3003F0FF05002B46D14FF001093B
:102030008DF81510CDF818A0CDF820E08DF814908B
:1020400005AF0E460FCF8CF82F90C4F88865C4F802
:102050000451D4F8046102960CF10C060FC6029BE1
:10206000C4F82451D4F824310393396803988CF8C8
:10207000305040F202234FF48052C4F85055316082
:10208000C4F84055C4F834E5C4F838A5C4F80022B3
:10209000CCF80830C4F82090C4F800905BF8083001
:1020A0009BB1DCF80830C4F8043328460BB0BDE817
:1020B000F08F10200BB0BDE8F08FDCF80830C4F8CA
:1020C000043311200BB0BDE8F08F4A4602E0D4F88B
:1020D0002411E1B9D4F80431002BF8D0019A34234B
:1020E00003FB02BBD4F8C434C4F8C43400228BF818
:1020F0002F20ABB113F0020F48F2012048F2022268
:1021000008BF032013F0040F18BF1046CEE7C4F831
:102110002431D4F824310493049B22626261D9E70C
:102120001846C3E702029C01F0070020054A137914
:102130002BB9012110605371184611717047852029
:10214000704700BF24080020074B1A68D20704D448
:10215000E021012283F800131A604FF0804301222E
:10216000C3F81825704700BF00E100E010B4094B28
:10217000094A0021196083B01B680193019C4FF04C
:10218000804102200123C1F80403136003B05DF80D
:10219000044B7047040100400800004010B5154B87
:1021A0001A6882B07AB10021134A19601B6850790D
:1021B00000934FF080410123009CC1F8083310B90F
:1021C0001168537188470D4B1A6882B100221A605A
:1021D0001B6801934FF080420221074B0198C2F81F
:1021E00008131B68012002B0BDE81040184702B078
:1021F00010BD00BF00010040240800200401004081
:10220000F8B5204A204B0024C2F84041C2F84441AE
:10221000C2F84841C2F84C41C2F80041C2F804413A
:102220001B6833B31949D2F804550A68AD1A1A6805
:1022300025F07F45AA4227460DD8197CDE69AD1AE4
:10224000144419B11F74D3E9052090471EB13346D9
:102250001A68AA42F1D90E490E4A0B7812789A42AE
:1022600008D00D490D4A41F823404FF48013C2F8BD
:102270000031F8BD531CDBB2022B08BF00230B70EA
:10228000EFE700BF001001404C0900204809002082
:1022900045090020440900203C09002000E100E03D
:1022A0002DE9F04F8C4A8D4913780978DFF8508278
:1022B000994285B0D8F800A000F07B810133DBB2F1
:1022C000022B08BF002386481370864A076852F81D
:1022D00023107B1823F07F430024036053462646D7
:1022E0002046A446ABB11A688A4200F26581DC68D8
:1022F000C3F800C0891A1044DA6934B13D1825F0DA
:102300007F45C3E90154DE611E4613460124002BBC
:10231000E9D1002C40F07C8101230093724B734F74
:10232000DFF8E09143F00103019355464FF0000BB5
:1023300046B3D6E901C13446F669694B6C481A6860
:10234000ACEB020323F07F43834248D80B44236065
:1023500000220121C4E90122E2612174002D5DD037
:102360002A689A424DD2284603E00A689A424FD220
:102370000846C1699B1A0029F7D12360E161C46155
:10238000002ED6D178783978884264D00B4603EB9A
:1023900043034C1CBA7807EBC303E1B28A421A79B3
:1023A000397004BF00213970022A9C6844D0032A86
:1023B00038D0012AE8D1227C002AE5D1D3F80CC01C
:1023C000C4F804C01969A1605869E06099F8000078
:1023D0009B69A3610028B0D062609446ADE7A2EB90
:1023E0000C0222F07F428A4202D28B1A2360AFE7AE
:1023F00000230122C4E90033A360E36122746DB1BC
:102400002A68C8F80040D31A2B60E56125468FE79B
:10241000D21A0A602360E161C461B1E7C8F80040E4
:10242000254685E7002DAFD000232B74ED69002DE4
:10243000FBD1C8F80050A5E74DB1AC422B4603D103
:10244000E4E094422FD01346DA69002AF9D1002340
:10245000237488429AD1BBF1000F01D1554553D066
:10246000002D56D1234E244A1F4C4FF480334FF495
:1024700000310127C2F880103C43C6F848334FF4BE
:102480003C60C6F808337760A047154BB7604FF43F
:102490003C601D60A047194B1D70002389F8003077
:1024A00005B0BDE8F08FA34200F09180E06921689B
:1024B000D861002800F086802A4603680B44036038
:1024C000AA424FF000033978787823741CBF154670
:1024D0004FF0010BBDE700BF440900204509002073
:1024E000480900203C090020904E00002C080020E4
:1024F000FEFF7F000010014000E100E039090020EC
:102500004C09002038090020009B002BC5D0002D6D
:10251000A8D0434B434A1C68D2F80465424FD5F813
:1025200000A03978331B23F07F43DD1CB9B93F4944
:102530003F4B4FF48030C2F844034FF00108C2F81B
:1025400004034FF40030C1F8800143F00103086038
:10255000C2F800804FF43C60984787F80080AA4595
:102560002CBF04EB0A0363192E4923F07F43C1F803
:102570004035D1F80425921B9B1B22F07F4223F0AB
:102580007F4303329A4288D9294BD1F80425C1F8F8
:10259000402543F001034FF43C609847234B4FF430
:1025A0000032C3F80021002389F8003005B0BDE8EF
:1025B000F08F00260096B1E674BB521A1A60012310
:1025C0000093ABE6002339787878237441E7194605
:1025D000EA69C8F8002092B9CDE90231114BDFF861
:1025E00040C001209860019B89F80000CCF80020D1
:1025F0004FF43C609847DDE90231D8F80020C86903
:102600000968D86100287FF458AF59E72946DFE709
:10261000C8F800309A467FE6C8F800309A46CCE702
:1026200048090020001001403909002000E100E0C5
:10263000904E00002DE9F8431F4D204E204FDFF84B
:1026400098804FF480334FF400324FF0010900249A
:10265000C6F8802047EA0907C5F848334FF43C60C4
:10266000C5F80833C5F80490B847C5F808904FF48A
:102670003C60C8F80040B847124A134B13491C602D
:102680001470134B134A0C700B2114701C8099703A
:102690004FF48012C023C6F8802186F814333260CC
:1026A000C5F8084586F81133D5F80435C8F8003068
:1026B0002046BDE8F88300BF0010014000E100E0C3
:1026C000904E0000390900204C09002044090020E8
:1026D0002C0800204509002048090020074B9B7862
:1026E0004BB132B128B10368187C20B959745A61D2
:1026F0007047072070470820704700BF2C08002053
:102700002DE9F843224CA378002B35D0002833D094
:10271000042934D943697BB3437C0646012B4FF02F
:1027200000000CBF8846804617468946FEF780FBAE
:102730006378A17822785D1CEDB2A94208BF00251C
:10274000AA421FD003EB430304EBC3030121114A48
:102750009E601971D2F80425DA600020C3E904985C
:102760009F616570FEF76CFB0B4B4FF48012C3F852
:1027700000210020BDE8F8830820BDE8F883072089
:10278000BDE8F8830020FEF75BFB0420F2E700BF02
:102790002C0800200010014000E100E010B570B1ED
:1027A00001280BD10D4C2369A0703BB1D3E9002364
:1027B0000120226198472369002BF7D110BD074CF7
:1027C000A36801226270002BF8D0D3E90023002017
:1027D000A2609847A368002BF7D1EFE750090020CB
:1027E00038B50A4C23786BB909486360A36023614C
:1027F000E360FFF79BFC0546FFF7A6FC012323706F
:10280000284638BD8525284638BD00BF5009002020
:102810009D27000038B5154CA378054673B110B15B
:102820004368012098470020FEF702FBE36801336C
:10283000E3600020BDE83840FEF702BB03F0FF0074
:10284000FEF7F6FA65B1226942B1954208D0134607
:1028500001E09D4204D01B68002BFAD12A6025615B
:10286000E368002BE2D1FFF781FCDFE7500900208D
:1028700070B52DED048B86B006AD2D2305F8023D15
:1028800000242A4600940123182195488DF817400A
:10289000FFF7E0FA002840F013810DF11702012341
:1028A00018218F48FFF798FB002840F0068100238D
:1028B0009DF8174000932A4689482C2501231821AA
:1028C00024028DF81650FFF7C5FA002840F0F28078
:1028D0000DF11702012318218148FFF77DFB002825
:1028E00040F0E5807F499DF8175008787E4A431CE8
:1028F000DBB22C43092B22F810400B7040F2CE8043
:1029000000207A4B08701188DFED797A764C06EE5C
:10291000901A5188F8EEE66A07EE101A918876EE62
:10292000A76A04EE901AB8EEC77AD18837EE267AF5
:1029300005EE101AF8EEE44A118974EE874AB8EEF3
:10294000C55A07EE101A518935EE245A06EE901A30
:10295000B8EEC77A918937EE057A05EE901AF8EE4F
:10296000E66AD18976EE876A06EE101AF8EEE55A25
:10297000118A528A75EEA65AB8EEC66A06EE901A09
:1029800007EE102A36EE256AF8EEE66AB8EEC77A48
:1029900076EE866AB2EE046A37EE267A9FED4E9B9B
:1029A00087EE068A002204F114061A7017EE905A78
:1029B00034F8023B07EE903AF8EEE77A77EEC87A01
:1029C00017EE900A01F038FEB0EE491AF0EE691ADF
:1029D00041EC100B00F070FB53EC102B2846CDE9B6
:1029E000022301F029FEDDE9022301F0C7FC02F019
:1029F0002BF9B4420546DBD107EE100AF2EE047A59
:102A0000C7EE277A17EE900A01F016FE41EC100B84
:102A100000F0EEFC51EC100B02F016F9354B08EE0D
:102A2000100A3548C01AC008B5EEC08A0004F1EE9D
:102A300010FA40F0030046D4304ADFED316A3149E4
:102A4000BDEEC87AB5EEC08AF8EEC77AF1EE10FA9C
:102A5000CCBF78EE677A77EEC87A17EE103A67EE59
:102A6000A67AFDEEE77ACDED007AFDF769FFFDF776
:102A7000E9FF0028FBD1DFED247A4FF0A043B4EE4C
:102A8000E78AF1EE10FA4FF40052CCBFC3F80C25E0
:102A9000C3F8082506B0BDEC048B70BD134B197844
:102AA00001293FF430AF06B0BDEC048B70BDFEF7DA
:102AB00077F917E7FEF774F90AE7FEF771F9F6E61A
:102AC000FEF76EF9E9E6FFEE007AB4EEE78AF1EE82
:102AD00010FAB1DD0D4AB0E7000000000000004030
:102AE000AC4E00007909002064090020780900201C
:102AF00000000000545000007C500000704E0000A8
:102B00000000C842BC4E00000000FA43B84E00006E
:102B100030B54FF4004187B00020FDF70DFD0028CF
:102B20006AD1FDF78FFCFFF75BFE002861D1002022
:102B3000FFF770FE002005901A24034602464FF06E
:102B4000CC701B2503940490022402A92C48029502
:102B50008DF81440FEF742FF002847D12948FFF7BF
:102B600069F9294B27481B88ADF8083000230093EA
:102B700002AA02231821FFF76DF9A0BB4FF0A04372
:102B800003224FF400554FF480444FF400404FF4BB
:102B90008031C3F83427C3F80855C3F83827C3F881
:102BA0000845C3F83C27C3F80805C3F84027C3F815
:102BB0000815FFF73FFD98B9144A15480121FFF7A2
:102BC0008DFD50B9002241F69A111248FFF798FD89
:102BD00000B9FEE7FEF7E4F8FBE7FEF7E1F8F1E7FE
:102BE000FEF7DEF8E8E7FEF7DBF8C7E7FEF7D8F810
:102BF000B4E7FEF7D5F89AE7FEF7D2F891E700BF01
:102C0000A84E0000AC4E0000A04E0000712800004D
:102C1000A44E00007C0900202DE9F84F4400DFF8A5
:102C20005CB126180BEBC6068146F76A012F8A466F
:102C3000904667D03DD3022F30D100F1010909EB56
:102C40004909756A4FEAC9090027B36A346AAB4279
:102C500003F1FF329CBF1B1903F1FF33A4EB050402
:102C60008CBF531B5B1B0BEB0902444528BF44463A
:102C70009C42506828BF1C4628445146224600F01A
:102C8000E9F9336A25449D422744A8EB0408A2448D
:102C900008D07562B8F1000FD7D100E000273846A0
:102CA000BDE8F88F00231D467362B8F1000FCCD148
:102CB000F5E7B36A756AAB429CBF326A9B18013B69
:102CC0005B1B9845EBD8044400F101090BEBC404ED
:102CD00009EB49090BEBC90B266ADBF80400761BEC
:102CE000B045284443D33246A8EB060500F0B2F9BC
:102CF0000AEB0601DBF804002A4600F0ABF9474670
:102D00006562CCE7D6E90825B76AAF4298BFBF181D
:102D1000461C013F06EB46067F1B0BEBC6064745EC
:102D200028BF47467068A2EB05084745284412D3E0
:102D3000A1444246A7EB08050BEBC90B00F08AF94A
:102D40000AEB080170682A4600F084F9CBF8245099
:102D50003846BDE8F88FA1440BEBC90B3A463D4419
:102D600000F078F9CBF824503846BDE8F88F424699
:102D7000454400F06FF94746656290E7AC0B0020D0
:102D800038B5114C114B1248E36110254FF4007314
:102D9000104A11492362E06400232565E01D0225E5
:102DA000A3626362E362A3656365E365A261A264F3
:102DB000C4E9045500F061F92046084900F05DF9C6
:102DC0002023A37138BD00BFAC0B0020AC0900204C
:102DD0009C0900200C4F0000184F00001C4F000001
:102DE00010B44FF080414FF080520020C1F80C0128
:102DF0005E4BC1F81001C1F83805D2F80414C3F8CD
:102E00002015D2F80814C3F82415D2F80C14C3F80E
:102E10002815D2F81014C3F82C15D2F81414C3F8DE
:102E20003015D2F81814C3F83415D2F81C14C3F8AE
:102E30004015D2F82014C3F84415D2F82414C3F86E
:102E40004815D2F82814C3F84C15D2F82C14C3F83E
:102E50005015D2F83014C3F85415D2F83414C3F80E
:102E60006015D2F83814C3F86415D2F83C04C3F8DE
:102E70006805D2F840043E49C3F86C050968D2F8E9
:102E80004424C3F87025082924D04FF08043D3F898
:102E90000024D20744BF6FF00102C3F80024354A72
:102EA000D2F8883043F47003C2F88830BFF34F8FF4
:102EB000BFF36F8F4FF01023D3F80022002A23DBDB
:102EC000D3F80432002B1FDB2B4B2C4A1A605DF821
:102ED000044B70472A4B1B68002BD6D129482A4A3D
:102EE0002A4C04602A492B4BFB20C2F818050A68BB
:102EF0001B68294822F00F0203F00F0313434FF41D
:102F000000720B600260C0E7244B0122C3F8042565
:102F1000D3F80024002AFBD04FF0102312221F49BF
:102F2000C3F80022D1F80034002BFBD04FF0102260
:102F300012211A4BC2F80412D3F80024002AFBD045
:102F400000221649C3F80425D1F80034002BFBD029
:102F5000BFF34F8F0749124BCA6802F4E062134374
:102F6000CB60BFF34F8F00BFFDE700BF00C0004044
:102F70003001001000ED00E0080000200090D003B8
:102F8000340100108C56004000F0004048810300DE
:102F9000E40E0040580200104096024000E001405C
:102FA0000400FA0508B5074B044613B10021AFF33E
:102FB0000080054B1868836A03B19847204600F0EB
:102FC00079F800BF00000000244F000070B50D4EDE
:102FD0000D4CA41BA4100025A54209D10B4E0C4C8E
:102FE00001F088FEA41BA4100025A54205D170BDE8
:102FF00056F8253098470135EEE756F825309847C2
:103000000135F2E7E0010020E0010020E0010020AE
:10301000E4010020044B054A1B681B6A002B08BF13
:103020001346D3F8EC0070470C000020700000201D
:1030300082B001B901A942B14BB113780B6012788B
:10304000101C18BF012002B070471046FBE76FF05C
:103050000100F8E710B5431E0A44914200D110BDAB
:1030600011F8014B03F8014FF7E70244034693427E
:1030700000D1704703F8011BF9E7034611F8012B53
:1030800003F8012B002AF9D17047034613F8012BEE
:10309000002AFBD1181A0138704749B1FF2A85BFB1
:1030A0008A2303600A704FF0FF3098BF01207047F9
:1030B00008467047FEE700BF2DE9F04F2DED028B6B
:1030C000DFF824A38BB057EC106B55EC114B00F0DC
:1030D000EBF99AF90080B0EE408AF0EE608AB8F120
:1030E000FF3F33D022462B462046294601F096FD6D
:1030F000834658BB32463B463046394601F08EFD8A
:103100008146002866D1304639460022002301F06E
:1031100053FD20B3002200232046294601F04CFD38
:10312000834600287DD09FEDA67B0122AA4BCDF8D7
:1031300020900092CDE90267CDE904458DED067B34
:103140000193B8F1000F5ED09FED9F8BB0EE480A5F
:10315000F0EE680A0BB0BDEC028BBDE8F08FB0EE6C
:10316000480AF0EE680A00F0CFFF8046002800F021
:1031700082804FF000084FF0000951EC180B4246D6
:103180004B4601F019FD0028E0D047EC106B00F031
:10319000BBFF0028DAD045EC104B00F0B5FF00284B
:1031A000D4D09AF900308C4A019204210022022BDB
:1031B000CDE90267CDE90445CDE906890091089281
:1031C00003D0684600F0A8FF10BB01F08DFD22235C
:1031D00003601DE0002200232046294601F0ECFC9C
:1031E0000028B3D09FED788B01227B4BCDF820B027
:1031F000B8F1020F0092CDE90267CDE904458DEDEB
:10320000068B0193A2D0684600F086FF002878D094
:10321000089B1BB101F068FD089B03609DED068BC8
:1032200094E745EC104B00F06FFF00288ED0002291
:1032300000232046294601F0C9FC002886D0664AB2
:103240009AF90030CDF820B00121CDE90267CDE92F
:103250000445CDE90012002B58D060490020022B14
:10326000CDE9060156D101F03FFD21230360089B03
:10327000002BD3D0CEE747EC106B00F045FF0028C1
:103280003FF477AF45EC104B00F03EFF00283FF4D1
:1032900070AF53EC182B18EE100A194601F0BEFC63
:1032A0009AF9009000286FD10323DFF82CC1089011
:1032B0002946204600930022494BCDF804C0CDE9B1
:1032C0000445CDE9026701F00FFA04460D46B9F155
:1032D000000F25D1DFF814914FF060480022002341
:1032E00030463946CDE9068901F070FC38BB6846A6
:1032F00000F012FF0028BAD101F0F6FC222303608F
:10330000B5E701F0F1FC2123036081E79FED2C7B01
:103310008DED067B684600F0FFFE0028A7D1A2E7EE
:103320009FED2B7B00220023304639468DED067B36
:1033300001F04CFCB0B9B9F1020FDDD0D7E745EC94
:10334000104B00F0F5FE22462B4651EC100B01F01D
:1033500033FCB0B9234B9AF900904FF06042CDE9AD
:103360000623E8E745EC104B00F0E2FE22462B4630
:1033700051EC100B01F020FC18B9184B0022CDE9DC
:1033800006239AF90090D6E70122134BCDF820804E
:103390000092CDE90267CDE904450193B9F1000F30
:1033A000B4D0002200231046194601F0C7FAB9F143
:1033B000020FCDE906013FF456AFABE7AFF3008053
:1033C0000000000000000000000000000000F03FCE
:1033D000000000000000F07F345000000000F0FF0B
:1033E0000000E03FFFFFEFC7DC010020FFFFEF47D9
:1033F0002DE9F0432DED028B8BB055EC104B00F016
:10340000AFFD274BB0EE408AF0EE608A93F9006082
:10341000731C12D022462B462046294601F0FEFBA3
:10342000074650B94FF000084FF0000920462946E2
:1034300042464B4601F0CAFB40B9B0EE480AF0EEF6
:10344000680A0BB0BDEC028BBDE8F0830122154B7E
:1034500008970092CDE90445CDE90245019396B164
:1034600042464B464046494601F068FA022ECDE9F5
:1034700006010AD101F038FC21230360089B53B9EF
:103480009DED068BD9E7CDE90689684600F044FE3C
:103490000028F3D1EEE701F027FC089B0360EFE77B
:1034A000DC010020385000002DE9F04F51EC110BE9
:1034B00021F0004555EA000393B010D059EC108B71
:1034C0006D4B29F000449C424E4610EE10AA0DDDD3
:1034D00004F1404404F5801454EA0A0356D16749C4
:1034E000002041EC100B13B0BDE8F08F0F4611EE39
:1034F00010CA48D09D42EBDC5F4B9D425FD0002E4E
:10350000CDE900015FDB4FF0000BBCF1000F0ED1E5
:10351000594B9D4243D0594B9D4200F08C80B7F1EE
:10352000804F00F09E80564B9F4200F0B88349ECDC
:10353000108B00F0DFFD51EC100BBAF1000F06D13B
:10354000002C5AD04D4B26F040429A4255D0F60FEF
:1035500006F1FF3A5BEA0A0373D04A4B9D4240F3FF
:10356000998003F104739D4240F33884464B9C429A
:1035700072DD002F72DD3EA3D3E900231046194609
:1035800001F0B2F8ADE7B8F1000F05D03F4813B035
:10359000BDE8F04F00F0C4BDA542F7DCACE704F194
:1035A000404303F5801353EA0A0398D0364B9C42FC
:1035B00040F37F83002F51DBDDE9000191E7BCF18F
:1035C000000F9CD084E7324B9D4231DCA3F1547351
:1035D0009D4298DD2B15A3F2FF33142B40F3A183FA
:1035E000C3F134032CFA03F202FA03F363458AD1E0
:1035F00002F00102C2F1020B87E7002F05DA024652
:103600000B4600201D4901F099F9002EBFF669AF65
:1036100004F1404404F5801454EA0B0300F03A84AA
:10362000BBF1010F7FF45DAF01F10043194658E78C
:103630004FF0020B69E7002FC0F244834046494631
:103640004FE742464B461046194600F095FE0246AB
:103650000B4601F073F944E7002F8CDB00200021BA
:103660003FE742464B464046494601F03DF838E7C1
:103670009C7500883CE4377E0000F07F0000F03F3E
:103680000000E03F0000E041FFFFEF3F704E000010
:10369000FFFF3F43B4F5801F80F260830022D04BD0
:1036A00001F022F86FF034060C462315CD4AC4F31E
:1036B0001304A3F2FF3344F07F559E1994420D96F4
:1036C00045F4401540F33D83C74B9C4240F30184D1
:1036D0009FEDAD7B8DED087B8DED107B9FEDAC7B81
:1036E0008DED067B01360D96A5F580154FF000088F
:1036F000DDE906232946064600F03EFEDDE9062305
:10370000CDE90A013046294600F038FE02460B4654
:103710000020B64901F012F903460C46CDE90E34FB
:1037200002460B46DDE90A0100F0DEFF6B1043F0B4
:10373000005303F500230A462F46014603EB080514
:103740000023CDE902120293DDE902890024CDE9CC
:1037500004122B4622464046494600F0C5FF024669
:103760000B46DDE90A0100F007FEDDE90623CDE99D
:103770000A012046294600F0FFFD02460B4630466E
:10378000394600F0F9FD42464B4600F0ADFF0246D7
:103790000B46DDE90A0100F0EFFDDDE90E2300F044
:1037A000A3FFDDE90445CDE9060122462B4620466C
:1037B000294600F099FF78A3D3E9002304460D467B
:1037C00000F092FF76A3D3E9002300F0D7FD224654
:1037D0002B4600F089FF74A3D3E9002300F0CEFD4F
:1037E00022462B4600F080FF71A3D3E9002300F0AE
:1037F000C5FD22462B4600F077FF6FA3D3E90023D7
:1038000000F0BCFD22462B4600F06EFF6CA3D3E90E
:10381000002300F0B3FD224606460F462B46204605
:10382000294600F061FF02460B463046394600F05B
:103830005BFF424604460D464B46DDE9040100F0BD
:103840009DFDDDE9062300F04FFF22462B4600F0E8
:1038500095FD424606460F464B464046494600F017
:1038600043FF0022624BCDE90A0100F087FD32469A
:103870003B4600F083FD02980D46044622462B4647
:103880004046494600F030FF002280468946584BAA
:103890002046294600F070FDDDE90A2300F06CFDAA
:1038A00002460B463046394600F066FDDDE904234A
:1038B00000F01AFF224606460F462B46DDE90601B8
:1038C00000F012FF02460B463046394600F056FD26
:1038D00006460F4602460B464046494600F04EFD5E
:1038E000029839A3D3E9002304460D4600F0FCFEFC
:1038F0004246CDE904014B462046294600F03CFDF6
:1039000002460B463046394600F036FD30A3D3E977
:10391000002300F0E9FE30A3D3E9002306460F465A
:103920002046294600F0E0FE02460B463046394666
:1039300000F024FDDDE9102300F020FD06460D987F
:103940000F4600F067FE3246804689463B46DDE979
:10395000040100F013FDDDE9082300F00FFD4246ED
:103960004B4600F00BFD029842464B4604460D467E
:1039700000F002FDDDE9082300F0FEFCDDE9042390
:1039800038E000BFAFF3008000000000000000003E
:10399000000000000000F03FEF4E454A287ECA3F7D
:1039A00065DBC9934A86CD3F01411DA96074D13FB3
:1039B0004D268F515555D53FFFAB6FDBB66DDB3FC5
:1039C000033333333333E33F000000E009C7EE3FF6
:1039D000FD033ADC09C7EE3FF5015B14E02F3EBE64
:1039E000000040438E98030079B60B000000F03FC2
:1039F0000000084000F0C0FC0B4602463946304645
:103A000000F0BAFC0BF1FF3353EA0A03CDE90401DD
:103A100000F05F819FEDD27B8DED027BDDE900AB95
:103A2000002356465F46CDE900670093DDE9006755
:103A3000504632463B46594600F09EFC22462B46F5
:103A400000F052FE5246804689465B46DDE904019D
:103A500000F04AFE02460B464046494600F08EFC06
:103A60003246804689463B4620462946CDE90489B0
:103A700000F03AFE0B46024606460F4640464946CF
:103A800000F07CFCD04B994204460D468A4640F338
:103A9000258101F13F4303F5E003034340F0FE813C
:103AA000B1A3D3E90023DDE9040100F067FC32464D
:103AB000804689463B462046294600F05DFC02468A
:103AC0000B464046494601F09FF8002840F0E68149
:103AD000A8464FEA2853A3F2FE324FF48013134155
:103AE0005344C3F30A52B94DA2F2FF321541C3F356
:103AF000130423EA05010020C2F1140B44F48014DE
:103B0000BAF1000F02460B4644FA0BFB3046394629
:103B1000B8BFCBF1000B00F02FFC06460F46324633
:103B2000DDE904013B4600F029FC4FEA0B5A0D4643
:103B300000248FA3D3E900232046294600F0D4FDBA
:103B40003246804689463B462046294600F014FC12
:103B500002460B46DDE9040100F00EFC86A3D3E922
:103B6000002300F0C1FD86A3D3E9002306460F46DB
:103B70002046294600F0B8FD02460B46304639463D
:103B800000F0FCFB06460F4602460B4640464946FF
:103B900000F0F4FB42464B4604460D4600F0ECFBB9
:103BA00002460B463046394600F0E6FB2246804688
:103BB00089462B462046294600F096FD72A3D3E99C
:103BC000002306460F4600F08FFD71A3D3E90023C2
:103BD00000F0D2FB32463B4600F086FD6EA3D3E9EF
:103BE000002300F0CBFB32463B4600F07DFD6CA38A
:103BF000D3E9002300F0C0FB32463B4600F074FDE1
:103C000069A3D3E9002300F0B9FB32463B4600F03C
:103C10006BFD02460B462046294600F0ADFB0646EA
:103C20000F4602460B462046294600F05DFD002265
:103C3000CDE900014FF080433046394600F09CFB4F
:103C400002460B46DDE9000100F078FE42460646DA
:103C50000F464B462046294600F046FD42464B465D
:103C600000F08CFB02460B463046394600F084FBE0
:103C700022462B4600F080FB02460B4600205449AA
:103C800000F07AFB8A44BAF5801F02460B46C0F268
:103C900030815146DDE9022300F026FD21E4002EAB
:103CA000FFF645AC49EC108B13B0BDE8F04F00F0C7
:103CB00057B9002FBFF6D2ACDDE90034184604F145
:103CC00000410EE442464B460020414900F036FEDA
:103CD00007E49FED377B8DED027B9FE63D4B21F0A6
:103CE0000048984540F3E8803B4B0B4403430AD11E
:103CF00032463B4600F040FBDDE9042300F07AFF4A
:103D000000283FF4E6AEDDE902012BA3D3E900234E
:103D100000F0EAFC28A3D3E9002300F0E5FCFFF75C
:103D2000E0BBBCF1000F40F0D080C3F1140345FAB2
:103D300003F202FA03F3AB4200F0E380E346FFF73D
:103D4000EABB9FED1F7B8DED087B8DED107B9FED1A
:103D5000047B4FF000088DED067BC9E40026A4E447
:103D6000000000000000F03FFE822B654715973CE5
:103D700000000000432EE63FEF39FAFE422EE63FF8
:103D8000396CA80C615C20BED0A4BE726937663E57
:103D9000F16BD2C541BDBB3E2CDE25AF6A56113F4B
:103DA00093BDBE166CC1663F3E5555555555C53F32
:103DB000000000000000F0BF59F3F8C21F6EA5011B
:103DC0000000000000000000FFFF8F40FFFF0F0019
:103DD0000000F03FFFCB904000346F3F5C4B9C42B3
:103DE0007FF73AAC5B4B9C423FF7C3AB0022594B89
:103DF00000F0C2FA46A3D3E9002304460D4600F0C2
:103E000073FC45A3D3E90023804689462046294612
:103E100000F06AFC0022CDE902014F4B2046294602
:103E200000F062FC02460B463DA1D1E9000100F022
:103E3000A3FA22462B4600F057FC02460B46002010
:103E4000464900F099FA224606460F462B46204680
:103E5000294600F049FC02460B463046394600F040
:103E600043FC31A3D3E9002300F03EFC02460B469D
:103E7000DDE9020100F080FA02460B4606460F46D5
:103E80004046494600F07AFA002004460D46424674
:103E90004B46AFE502460B46FFF7D5BBDDE9020115
:103EA00023A3D3E9002300F01FFC21A3D3E90023BF
:103EB00000F01AFCFFF715BB284B98453FF709AEF9
:103EC000DDE900239246934632E64FF0000BFFF700
:103ED0002EBB9FED197B8DED087B9FED197B8DED42
:103EE000107B9FED197B4FF480288DED067BFFF74B
:103EF000FFBB584643EC102B00F0A2F951EC100B1D
:103F0000C8E602F00102C2F1020BFFF704BB00BFDA
:103F1000000000604715F73F44DF5DF80BAE543EEC
:103F2000555555555555D53FFE822B654715F73FDD
:103F30009C7500883CE4377E0000004003B8E23FF7
:103F400006D0CF43EBFD4C3E000000000000F83FE0
:103F5000FEFFEF3F0000F03F0000D03F0000E03FD9
:103F60002DE9F041624A57EC106BBA4300F095809E
:103F7000002F3B4610EE101A344654DD3F1500F07A
:103F8000AF80C3F31303A7F2FF3743F48013E20FAC
:103F9000F90702EB43034FEA440503D5ED0F05EBA8
:103FA0004303A50000267F10B44616224FF40011EB
:103FB0000CEB010098424FEAD5744FEA450503DC4B
:103FC0001B1A00EB010C0E44013A04EB43034FEAC9
:103FD0005101EDD11046964620244FF0004209E0F1
:103FE00052D05B00013C03EBD5734FEA52024FEA1B
:103FF000450536D0634502EB0E01F1DD002901EBEA
:10400000020E0ADBE046A3EB0C03A94288BF03F1D2
:10401000FF336D1A1044C446E3E7BEF1000FF1DB35
:104020000CF10108EFE727F0004232432AD0002FBD
:1040300049D1CA0A153B4905002AFAD012F480106A
:1040400001D050E020465200D50200F10104F9D51C
:10405000C4F1200501FA04F4E9401F1A41EA020301
:104060008FE72B4329D144087110F30701F17F51E9
:1040700001F5001148BF44F0004401EB075322460C
:1040800043EC102BBDE8F081A942AAD8002901EB2E
:10409000020EC2DB98460023BBE710EE102A3B4617
:1040A00010EE100A394600F01FFB32463B4600F086
:1040B00065F941EC100BBDE8F081421C16BF421CB3
:1040C00001365408D0E710EE102A3046394600F089
:1040D00053F902460B4600F031FC41EC100BD1E7DE
:1040E0001A463B46AAE70C4620254FF0FF30B3E7BF
:1040F0000000F07F51EC100B10EE102A21F000436D
:1041000043EC102B704700BF10EE903A43F0004094
:1041100000F58010C00F70470020704700000000BD
:104120009FED010B704700BF000000000000F87F0A
:10413000F0B551EC100BC1F30A55A5F2FF32132A6A
:1041400083B00B464FEAD17610EE104A2FDC002ADE
:104150004ADB394D154101EA0507074323D06D08B5
:1041600029400C430CD04FF48021132A23EA050583
:1041700041FA02F343EA05030CBF4FF00044002468
:104180002E4A02EBC6062046D6E9004502462946DD
:10419000204600F0F3F8CDE9000122462B46DDE988
:1041A000000100F0E9F841EC100B03B0F0BD332A38
:1041B00007DDB2F5806FF6D110EE102A00F0DEF8C0
:1041C000F1E7A5F213454FF0FF32EA401042EAD082
:1041D00052081042D4D04FF0804124EA020241FA42
:1041E00005F542EA0504CBE721F000420243DAD0AC
:1041F000C1F3130202435442104D1443240B05EB48
:10420000C6004F0C04F40021D0E900457F0410EEF5
:10421000102A41EA07032046294600F0AFF8CDE90D
:1042200000012B462246DDE9000100F0A5F821F04F
:10423000004343EAC671B6E7FFFF0F00405000009D
:1042400038B553EC102BC3F30A511C46054629BB65
:1042500010EE101A23F0004421431ED0194600220C
:10426000394B3A4C10EE100A00F03EFAA5420246D5
:104270000B4636DB0C46C1F30A513639294440F26D
:10428000FE70814235DC002914DD24F0FF4424F463
:10429000E00444EA015343EC102B38BD40F2FF70B8
:1042A0008142EBD110EE100A194600F067F841EC9C
:1042B000100B38BD11F1350F1EDA4CF250318D4222
:1042C00043EC112B28DD9FED1C0B00F043F81AA3E3
:1042D000D3E9002351EC100B00F006FA41EC100B6F
:1042E00038BD17A3D3E9002300F0FEF941EC100B11
:1042F00038BD43EC112BE6E724F0FF4424F4E0043E
:10430000363144EA0153104619460022104B00F0A2
:10431000EBF941EC100B38BD9FED090B00F01AF8DA
:1043200007A3D3E9002351EC100B00F0DDF941ECB9
:10433000100B38BDAFF300809C7500883CE4377EDD
:1043400059F3F8C21F6EA50100005043B03CFFFFB7
:104350000000903C53EC102B11EE900A23F000412A
:1043600000F0004041EA000343EC102B704700BF0F
:1043700081F0004102E000BF83F0004330B54FEA16
:1043800041044FEA430594EA050F08BF90EA020F83
:104390001FBF54EA000C55EA020C7FEA645C7FEA16
:1043A000655C00F0E2804FEA5454D4EB5555B8BF39
:1043B0006D420CDD2C4480EA020281EA030382EAAA
:1043C000000083EA010180EA020281EA0303362D3C
:1043D00088BF30BD11F0004F4FEA01314FF4801C0F
:1043E0004CEA113102D0404261EB410113F0004F21
:1043F0004FEA03334CEA133302D0524263EB4303D8
:1044000094EA050F00F0A780A4F10104D5F1200E75
:104410000DDB02FA0EFC22FA05F2801841F10001D0
:1044200003FA0EF2801843FA05F359410EE0A5F1A4
:1044300020050EF1200E012A03FA0EFC28BF4CF0D5
:10444000020C43FA05F3C01851EBE37101F000458B
:1044500007D54FF0000EDCF1000C7EEB00006EEB98
:104460000101B1F5801F1BD3B1F5001F0CD3490822
:104470005FEA30004FEA3C0C04F101044FEA445279
:1044800012F5800F80F09A80BCF1004F08BF5FEA00
:10449000500C50F1000041EB045141EA050130BDE0
:1044A0005FEA4C0C404141EB010111F4801FA4F183
:1044B0000104E9D191F0000F04BF01460020B1FAD8
:1044C00081F308BF2033A3F10B03B3F120020CDA10
:1044D0000C3208DD02F1140CC2F10C0201FA0CF0EE
:1044E00021FA02F10CE002F11402D8BFC2F1200C53
:1044F00001FA02F120FA0CFCDCBF41EA0C01904009
:10450000E41AA2BF01EB0451294330BD6FEA040451
:104510001F3C1CDA0C340EDC04F11404C4F120023C
:1045200020FA04F001FA02F340EA030021FA04F34E
:1045300045EA030130BDC4F10C04C4F1200220FAA5
:1045400002F001FA04F340EA0300294630BD21FAE3
:1045500004F0294630BD94F0000F83F4801306BFA9
:1045600081F480110134013D4EE77FEA645C18BF9D
:104570007FEA655C29D094EA050F08BF90EA020F34
:1045800005D054EA000C04BF1946104630BD91EA2C
:10459000030F1EBF0021002030BD5FEA545C05D12F
:1045A0004000494128BF41F0004130BD14F580046E
:1045B0003CBF01F5801130BD01F0004545F0FE41E2
:1045C00041F470014FF0000030BD7FEA645C1ABF17
:1045D000194610467FEA655C1CBF0B46024650EA4E
:1045E000013406BF52EA033591EA030F41F400217A
:1045F00030BD00BF90F0000F04BF0021704730B500
:104600004FF4806404F132044FF000054FF00001D4
:1046100050E700BF90F0000F04BF0021704730B595
:104620004FF4806404F1320410F0004548BF40426A
:104630004FF000013EE700BF42004FEAE2014FEABF
:1046400031014FEA02701FBF12F07F4393F07F4F9A
:1046500081F06051704732F07F4208BF704793F09D
:104660007F4F04BF41F40021704730B54FF46074B0
:1046700001F0004521F000411CE700BF50EA0102B3
:1046800008BF704730B54FF000050AE050EA01025C
:1046900008BF704730B511F0004502D5404261EBCC
:1046A00041014FF4806404F132045FEA915C3FF40D
:1046B000D8AE4FF003025FEADC0C18BF03325FEAAA
:1046C000DC0C18BF033202EBDC02C2F1200300FA5B
:1046D00003FC20FA02F001FA03FE40EA0E0021FA80
:1046E00002F11444BDE600BF70B54FF0FF0C4CF46E
:1046F000E06C1CEA11541DBF1CEA135594EA0C0F20
:1047000095EA0C0F00F0DEF82C4481EA030621EA5A
:104710004C5123EA4C5350EA013518BF52EA033595
:1047200041F4801143F4801338D0A0FB02CE4FF047
:104730000005E1FB02E506F00042E0FB03E54FF077
:104740000006E1FB03569CF0000F18BF4EF0010E6F
:10475000A4F1FF04B6F5007F64F5407404D25FEA6B
:104760004E0E6D4146EB060642EAC62141EA55511E
:104770004FEAC52040EA5E504FEACE2EB4F1FD0C60
:1047800088BFBCF5E06F1ED8BEF1004F08BF5FEADE
:10479000500E50F1000041EB045170BD06F0004690
:1047A00046EA010140EA020081EA0301B4EB5C043D
:1047B000C2BFD4EB0C0541EA045170BD41F4801135
:1047C0004FF0000E013C00F3AB8014F1360FDEBF5A
:1047D000002001F0004170BDC4F10004203C35DA36
:1047E0000C341BDC04F11404C4F1200500FA05F3B9
:1047F00020FA04F001FA05F240EA020001F000425A
:1048000021F0004110EBD37021FA04F642EB0601CF
:104810005EEA430E08BF20EAD37070BDC4F10C04F9
:10482000C4F1200500FA04F320FA05F001FA04F2BD
:1048300040EA020001F0004110EBD37041F10001A9
:104840005EEA430E08BF20EAD37070BDC4F12005B4
:1048500000FA05F24EEA020E20FA04F301FA05F21C
:1048600043EA020321FA04F001F0004121FA04F2C4
:1048700020EA020000EBD3705EEA430E08BF20EA94
:10488000D37070BD94F0000F0FD101F000464000CE
:1048900041EB010111F4801F08BF013CF7D041EA50
:1048A000060195F0000F18BF704703F00046520054
:1048B00043EB030313F4801F08BF013DF7D043EA25
:1048C0000603704794EA0C0F0CEA135518BF95EADB
:1048D0000C0F0CD050EA410618BF52EA4306D1D162
:1048E00081EA030101F000414FF0000070BD50EA81
:1048F000410606BF1046194652EA430619D094EA0B
:104900000C0F02D150EA013613D195EA0C0F05D1F4
:1049100052EA03361CBF104619460AD181EA030148
:1049200001F0004141F0FE4141F470014FF0000000
:1049300070BD41F0FE4141F4780170BD70B54FF09B
:10494000FF0C4CF4E06C1CEA11541DBF1CEA13551B
:1049500094EA0C0F95EA0C0F00F0A7F8A4EB0504FD
:1049600081EA030E52EA03354FEA013100F08880F4
:104970004FEA03334FF0805545EA131343EA1263BD
:104980004FEA022245EA111545EA10654FEA002672
:104990000EF000419D4208BF964244F1FD0404F52B
:1049A000407402D25B084FEA3202B61A65EB030587
:1049B0005B084FEA32024FF480104FF4002CB6EB44
:1049C000020E75EB030E22BFB61A754640EA0C00C4
:1049D0005B084FEA3202B6EB020E75EB030E22BF04
:1049E000B61A754640EA5C005B084FEA3202B6EB45
:1049F000020E75EB030E22BFB61A754640EA9C0004
:104A00005B084FEA3202B6EB020E75EB030E22BFD3
:104A1000B61A754640EADC0055EA060E18D04FEA91
:104A2000051545EA16754FEA06164FEAC30343EA31
:104A300052734FEAC2025FEA1C1CC0D111F4801FFE
:104A40000BD141EA00014FF000004FF0004CB6E7F7
:104A500011F4801F04BF01430020B4F1FD0C88BF96
:104A6000BCF5E06F3FF6AFAEB5EB030C04BFB6EBA1
:104A7000020C5FEA500C50F1000041EB045170BD94
:104A80000EF0004E4EEA113114EB5C04C2BFD4EBC1
:104A90000C0541EA045170BD41F480114FF0000E45
:104AA000013C90E645EA060E8DE60CEA135594EAC1
:104AB0000C0F08BF95EA0C0F3FF43BAF94EA0C0FC4
:104AC0000AD150EA01347FF434AF95EA0C0F7FF439
:104AD00025AF104619462CE795EA0C0F06D152EA8D
:104AE00003353FF4FDAE1046194622E750EA410671
:104AF00018BF52EA43067FF4C5AE50EA41047FF482
:104B00000DAF52EA43057FF4EBAE12E74FF0FF3CE6
:104B100006E000BF4FF0010C02E000BF4FF0010CB7
:104B20004DF804CD4FEA410C7FEA6C5C4FEA430C30
:104B300018BF7FEA6C5C1BD001B050EA410C0CBF7F
:104B400052EA430C91EA030F02BF90EA020F0020E1
:104B5000704710F1000F91EA030F58BF994208BF48
:104B600090422CBFD8176FEAE37040F00100704705
:104B70004FEA410C7FEA6C5C02D150EA013C07D15C
:104B80004FEA430C7FEA6C5CD6D152EA033CD3D0A7
:104B90005DF8040B704700BF8446104662468C46A1
:104BA0001946634600E000BF01B5FFF7B7FF0028D4
:104BB00048BF10F1000F01BD4DF808EDFFF7F4FFFD
:104BC0000CBF012000205DF808FB00BF4DF808ED88
:104BD000FFF7EAFF34BF012000205DF808FB00BFAB
:104BE0004DF808EDFFF7E0FF94BF012000205DF8CD
:104BF00008FB00BF4DF808EDFFF7CEFF94BF012082
:104C000000205DF808FB00BF4DF808EDFFF7C4FF7A
:104C100034BF012000205DF808FB00BF4FEA410CC3
:104C20007FEA6C5C02D150EA013C0AD14FEA430CA6
:104C30007FEA6C5C02D152EA033C02D14FF00000E3
:104C400070474FF0010070474FEA4102B2F1E04374
:104C500024BFB3F5001CDCF1FE5C0DD901F0004C63
:104C60004FEAC0024CEA5070B2F1004F40EB8300B3
:104C700008BF20F00100704711F0804F21D113F1DF
:104C80003872BCBF01F00040704741F480114FEA18
:104C90005252C2F11802C2F1200C10FA0CF320FAA1
:104CA00002F018BF40F001004FEAC1234FEAD323BE
:104CB00003FA0CFC40EA0C0023FA02F34FEA430328
:104CC000CCE77FEA625307D150EA01331EBF4FF0B1
:104CD000FE4040F44000704701F0004040F0FE40CC
:104CE00040F40000704700BF014B1868704700BFD8
:104CF0000C000020F8B500BFF8BC08BC9E46704709
:104D0000F8B500BFF8BC08BC9E4670470000000024
:104D10000338FDD870470000F50200006903000069
:104D2000F10200007274745F6C6F675F6261636BA5
:104D3000656E64003C0700207F000000BC07002077
:104D40004261636B656E647320666C75736865643D
:104D50000000000061707000B04D0000DC4D0000EC
:104D6000904D0000E44D0000EC4D0000F44D0000BB
:104D7000FC4D0000044E00000C4E00002025303297
:104D800078000000202020007C0000002563000047
:104D90001B5B313B33316D0025734C6F67732064AF
:104DA000726F70706564202825642925730D0A00D0
:104DB0001B5B306D00000000257300003C25733E36
:104DC0002025733A2000000000000000144E00006F
:104DD0001C4E0000244E00002C4E00001B5B313B9B
:104DE00033306D001B5B313B33326D001B5B313B5D
:104DF00033336D001B5B313B33346D001B5B313B48
:104E000033356D001B5B313B33366D001B5B313B33
:104E100033376D006572726F720000007761726ED9
:104E2000696E6700696E666F0000000064656275F8
:104E300067000000466174616C206572726F7200D9
:104E400053797374656D207265736574000000009A
:104E500030313233343536373839414243444546B0
:104E60000338FDD870470000505253005457494D45
:104E700000000000554152540000000055415254BA
:104E800045000000434C4F434B0000000000000071
:104E90000338FDD870470000636C6F636B0000003F
:104EA000209700007C090020000000000030004036
:104EB00000000000010000002D0000005669627231
:104EC0006174696F6E20696E74656E7369747920A0
:104ED00076616C7565207573696E67207374616E99
:104EE0006461726420646576696174696F6E206FB5
:104EF00066207A2D6178697320646174613A202597
:104F00007325642E253032640D0A00005465726DDD
:104F1000696E616C000000005254540053454747CD
:104F200045520000100000204300504F53495800E4
:104F30002E00002020202020202020202828282883
:104F40002820202020202020202020202020202059
:104F500020202088101010101010101010101010A9
:104F600010101004040404040404040404101010B9
:104F70001010101041414141414101010101010165
:104F800001010101010101010101010101011010F3
:104F90001010101042424242424202020202020239
:104FA00002020202020202020202020202021010C5
:104FB00010102000000000000000000000000000B1
:104FC00000000000000000000000000000000000E1
:104FD00000000000000000000000000000000000D1
:104FE00000000000000000000000000000000000C1
:104FF00000000000000000000000000000000000B1
:1050000000000000000000000000000000000000A0
:105010000000000000000000000000000000000090
:105020000000000000000000000000000000000080
:1050300000000000706F7700737172740000000050
:10504000000000000000304300000000000030C3FA
:04505000000000005C
:10505400844E000000000000684E000000000000C4
:105064006C4E000000000000744E000000000000C0
:105074007C4E000000000000544D000000000303BB
:08508400984E0000000000003E
:10508C00184D000000000000244D0000000000201E
:10509C0048020020100300201803002050020020BA
:0450AC0018000000E8
:0850B00090B1FF7F0100000038
:1050B80000000000FF0000000090D0031000002056
:1050C80000000000000000000000000000000000D8
:1050D80000000000000000000000000000000000C8
:1050E80000000000000000000000000000000000B8
:1050F80000000000000000000000000000000000A8
:105108000000000000000000000000000000000097
:105118000000000000000000000000000000000087
:105128004300000000000000000000000000000034
:105138000000000000000000000000000000000067
:105148004300000000000000000000000000000014
:105158000000000000000000000000000000000047
:1051680043000000000000000000000000000000F4
:105178000000000000000000000000000000000027
:1051880043000000000000000000000000000000D4
:105198000000000000000000000000000000000007
:1051A80043000000000000000000000000000000B4
:1051B80000000000000000000000000000000000E7
:1051C8004300000000000000000000000000000094
:1051D80000000000000000000000000000000000C7
:1051E8004300000000000000000000000000000074
:1051F80000000000000000000000000000000000A7
:105208009B3000003130000000000000324F0000E9
:10521800304F0000314F0000314F0000314F000087
:10522800314F0000314F0000314F0000314F000076
:10523800314F0000314F0000FFFFFFFFFFFFFFFF6E
:10524800FFFFFFFFFFFF00000100415343494900F2
:105258000000000000000000000000000000000046
:1052680000000000000000000000415343494900CD
:105278000000000000000000000000000000000026
:105288000000000000000000000000000100000015
:085298002502000001020000E4
:04000003000002B542
:00000001FF
